:020000040800F2
:10000000C0080020990C0008850300088703000839
:100010008B0300088F030008930300080000000012
:10002000000000000000000000000000970300082E
:1000300099030008000000009B0300089D030008CE
:10004000B30C0008B30C0008B30C0008B30C000894
:10005000B30C0008B30C0008B30C0008B30C000884
:10006000B30C0008B30C0008B30C0008B30C000874
:10007000B30C0008B30C0008B30C0008B30C000864
:10008000B30C0008B30C0008B30C0008B30C000854
:10009000B30C0008B30C0008B30C0008B30C000844
:1000A000B30C0008B30C0008B30C0008B30C000834
:1000B000B30C000897090008B30C0008B30C000843
:1000C000B30C0008B30C0008B30C0008B30C000814
:1000D000B30C00080F0C0008B30C0008B5090008A9
:1000E000B30C0008B30C0008B30C0008B30C0008F4
:1000F000B30C0008B30C0008B30C0008B30C0008E4
:10010000B30C0008B30C0008B30C0008B30C0008D3
:10011000B30C0008B30C0008B30C0008B30C0008C3
:10012000B30C0008B30C0008B30C0008B30C0008B3
:1001300000F002F800F04BF80AA090E8000C8244AE
:100140008344AAF10107DA4501D100F040F8AFF28B
:10015000090EBAE80F0013F0010F18BFFB1A43F0A5
:10016000010318474863000068630000103A24BF89
:1001700078C878C1FAD8520724BF30C830C144BF0C
:1001800004680C607047000000230024002500264E
:10019000103A28BF78C1FBD8520728BF30C148BFEA
:1001A0000B607047642904F06387782904F09C870A
:1001B000002070471FB505F0B7F9040000200021AA
:1001C00005F04AFA401C60601FBD10B510BD05F077
:1001D000CFF91146FFF7EEFF00F019F805F0EDF941
:1001E00003B4FFF7F2FF03BC00F0B6FC10B541F614
:1001F0001F41092000F0A2FB4FF4165000F0EBFB6A
:100200002F4800210160017103F094FE10BD00260B
:1002100000F038FC4FF4A06000F05EFD4FF4E130D8
:1002200000F0A9FC00F0ACF900F054FBFFF7DEFF92
:1002300024A004F0E9FE31A004F0E6FE3EE03948D7
:100240000078864209D0374806781EB136A004F0FF
:10025000DBFE02E036A004F0D7FE00F04EFB0546C0
:10026000294635A004F0D0FE1548C0F801500078AA
:10027000012803D100203449086002E001203249FE
:1002800008600F4804F01EF8002000F0B9F9044699
:10029000022C05D12DA004F0B7FE022003F061FE70
:1002A000032C08D130A004F0AFFE002003F059FE6B
:1002B00000201C490870C82000F021FCBFE70000A6
:1002C000000000202D2D2D2D2D2D2D2DBBFAD6C754
:1002D000D4C6494F542D4448543131CEC2CAAAB66F
:1002E000C8BCECB2E2B1A8BEAFCAB5D1E92D2D2D84
:1002F0002D2D2D2D2D2D2D0D0A0000004B45593192
:100300003A4169724C696E6BC1ACBDD3C4A3CABD1E
:1003100009204B45595F55503AB8B4CEBB0D0A0D74
:100320000A00000005000020636F6E6E65637400B4
:10033000636C6F7365000000B9E2D5D5C7BFB6C85E
:10034000CEAAA3BA256400009481214257494649A8
:10035000BDF8C8EB4169724C696E6BC1ACBDD3C4CA
:10036000A3CABD0D0A00000057494649B8B4CEBB28
:10037000A3ACC7EBD6D8D0C2C5E4D6C3C1ACBDD3FD
:100380000D0A0000704700BFFEE700BFFEE700BF98
:10039000FEE700BFFEE770477047704770470000F8
:1003A0000CB50020019000906C48006840F480304B
:1003B0006A49086000BF6948006800F40030009096
:1003C0000198401C0190009818B90198B0F5A06FF1
:1003D000F1D16248006800F4003010B101200090B3
:1003E00001E0002000900098012843D15C4800689B
:1003F00040F010005A4908600846006820F00300E9
:1004000008600846006840F00200086053484068F1
:10041000524948600846406848600846406840F4D1
:10042000806048600846406820F47C1048600846B8
:10043000406840F4E81048600846006840F080706A
:10044000086000BF4548006800F000700028F9D03F
:100450004248406820F00300404948600846406830
:1004600040F00200486000BF3C48406800F00C00CB
:100470000828F9D10CBD10B5FFF792FF10BD10B5DB
:100480003648006840F0010034490860084640687A
:1004900034490840314948600846006832490840FC
:1004A0002E4908600846006820F48020086008464D
:1004B000406820F4FE0048604FF41F008860FFF79A
:1004C000DAFF4FF000602949086010BD10B5002127
:1004D00000200022214B5B6803F00C0121B10429AC
:1004E00006D0082928D107E0214B224C236027E0C1
:1004F0001F4B204C236023E0184B5B6803F4701003
:10050000164B5B6803F48032022303EB904022B960
:10051000194B4343174C23600DE0104B5B6803F409
:10052000003323B1144B4343124C236003E0104BC0
:100530004343104C236003E00D4B0E4C236000BF7F
:1005400000BF064B5B68C3F303130C4CE15C094B23
:100550001B68CB40074C236010BD00000010024018
:10056000002002400000FFF8FFFFF6FE08ED00E06B
:1005700000127A000800002000093D000C00002055
:1005800008B50121482001F059F92020ADF80000FC
:1005900010208DF8030003208DF8020069460948F9
:1005A00000F090FE2021074800F039FF2020ADF830
:1005B00000006946044800F085FE2021024800F052
:1005C0002EFF08BD000C01400018014008B50121B4
:1005D000442001F033F91820ADF8000048208DF8D0
:1005E000030069462C4800F06DFE0120ADF80000C4
:1005F00028208DF803006946284800F063FE08BDF6
:1006000010B5044614B1012025490870244800782B
:1006100058B31021204800F0E8FE50B108211E48D0
:1006200000F0E3FE28B101211C4800F0DEFE0128A5
:100630001BD10A2000F063FA00201949087010212C
:10064000154800F0D2FE08B9012010BD082112485B
:1006500000F0CBFE08B90220F7E701210F4800F0B7
:10066000C4FE012815D10320EFE710210A4800F04D
:10067000BCFE01280DD10821074800F0B6FE012874
:1006800007D10121054800F0B0FE10B9012004494E
:1006900008700020D9E70000001801400008014060
:1006A0001C00002000B585B001214FF4017001F05D
:1006B000C5F84FF4004001F025F87D4800F07AFBC2
:1006C000002000908DF804008DF805004FF46020A4
:1006D00002900020039001208DF8100069467448B4
:1006E00000F08FFB012000F049FD0121704800F06F
:1006F000B4FB6F4800F0D3FB00BF6D4800F0D4FBA3
:100700000028FAD16A4800F0D9FB00BF684800F021
:10071000DAFB0028FAD105B000BD10B50446072366
:1007200001222146624800F004FC0121604800F0EB
:10073000D4FB00BF02215E4800F040FD0028F9D044
:100740005B4800F05DFC10BD70B50024002509E099
:100750001020FFF7E2FF204484B2052000F0CFF91B
:10076000681CC5B20A2DF3DB0A2094FBF0F080B2BE
:1007700070BD2DE9F04107460C460025002608E033
:100780003846FFF7CAFF0544052000F0B8F9701C91
:10079000C6B2A642F4DBB5FBF4F080B2BDE8F0814E
:1007A0002DE9F05F14211020FFF7E3FF8346584640
:1007B00005F0F0FC804605F07DFB06464FF0663202
:1007C0003C4B05F08FF904460D4622462B463A482D
:1007D0003A4905F085FA8046394A3A4B04F0FAFF67
:1007E00006460022384B04F04DFF04460D46002219
:1007F000364B2046294605F075F9064605F042F9C4
:100800000FFA80FA5046BDE8F09F00B585B001218F
:10081000C80301F013F80121C80301F029F80021F1
:100820004FF4004001F024F8294800F0C3FA0020FA
:1008300000908DF804008DF805004FF460200290C0
:100840000020039001208DF810006946204800F038
:10085000D8FA01211E4800F000FB1D4800F01FFBE4
:1008600000BF1B4800F020FB0028FAD1184800F018
:1008700025FB00BF164800F026FB0028FAD105B082
:1008800000BD10B50446072301222146104800F0A0
:1008900050FB01210E4800F020FB00BF02210C4854
:1008A00000F08CFC0028F9D0094800F0A9FB10BD2D
:1008B0000024014066664A3FE17A14AE47E1F63F04
:1008C00022FDF675E09C713F000039400000594060
:1008D000003C014008B50121802000F0AFFF4FF43B
:1008E0008070ADF8000000208DF8030069461248C2
:1008F00000F0E8FCFFF789FF08BD70B50024002573
:1009000008E00620FFF7BDFF0444052000F0F7F8DB
:10091000681CC5B20A2DF4DB0A20B4FBF0F4B4F570
:100920007A6F01D94FF47A642820B4FBF0F0C0F15B
:100930006400C0B270BD0000001C01407FB50546D8
:100940000C460121022000F086FFADF80850ADF8FA
:1009500004400020ADF80A00ADF8060001A91448D3
:1009600001F0A8FA01221146114801F01AFE1D20DB
:100970008DF8000000208DF8010003208DF80200A2
:1009800001208DF80300684600F0ABF9012108480A
:1009900001F0ECFD7FBD10B50121054802F0AFF874
:1009A00028B10121024802F0BBF802F02DF910BD78
:1009B0000004004008B540F22551304801F062F9CA
:1009C00040B12E4801F0DEF8C0B200900121684627
:1009D00002F0C4F908BD10B586B004460121082014
:1009E00000F02CFF0121880400F035FF234800F0BF
:1009F00089FF4FF48060ADF8100003208DF81200DD
:100A000018208DF8130004A91D4800F05BFC4FF47A
:100A10000060ADF8100004208DF8130004A91848F8
:100A200000F050FC00940020ADF80400ADF8060082
:100A3000ADF80800ADF80C000C20ADF80A006946CE
:100A40000E4800F0A2FF01210C4801F02AF8012213
:100A500040F22551094801F030F827208DF81400A4
:100A600002208DF8150003208DF8160001208DF866
:100A7000170005A800F035F906B010BD0048004089
:100A8000000C014010B56FF0040000F074F92E481E
:100A900000682E49B0FBF1F02D4908700846007837
:100AA00000EB4001C1EBC0104FF6FF7101EAC0003E
:100AB0002849088010BD0146254A12784A434FF064
:100AC000E0235A6100229A611A46126942F001023B
:100AD0001A6100BF4FF0E022106900F001021AB164
:100AE00000F48032002AF5D04FF0E022126922F0A3
:100AF00001024FF0E0231A6100229A61704701461B
:100B0000144A12884A434FF0E0235A6100229A6146
:100B10001A46126942F001021A6100BF4FF0E0224A
:100B2000106900F001021AB100F48032002AF5D0F9
:100B30004FF0E022126922F001024FF0E0231A6127
:100B400000229A61704700000800002000127A001D
:100B50001E00002020000020014600BF704700BF9B
:100B6000494A128802F04002002AF9D0C2B2464B2C
:100B70001B1D1A80704710B586B00446012144F24F
:100B8000040000F05BFE4FF40070ADF81400032089
:100B90008DF8160018208DF8170005A93B4800F0C5
:100BA00091FB4FF48060ADF8140004208DF817001D
:100BB00005A9364800F086FB25208DF800000320AB
:100BC0008DF801008DF8020001208DF803006846C1
:100BD00000F087F801940020ADF80800ADF80A0095
:100BE000ADF80C00ADF810000C20ADF80E0001A916
:100BF000254800F0CAFE012240F22551224800F0AB
:100C00005CFF0121204800F04CFF06B010BD10B57C
:100C100040F225511C4801F035F810B31A4800F095
:100C2000B1FFC4B21A48008800F40040C8B918489F
:100C3000008800F4804060B10A2C03D000201449E1
:100C4000088020E01248008840F4004010490880E5
:100C500019E00D2C06D10E48008840F480400C4964
:100C6000088010E00A480088C0F30D0009490C54C0
:100C700007480088401C0649088008460088C728A5
:100C800001DD0020088010BD00380140000801404F
:100C900028000020540000200948804709480047E8
:100CA000FEE7FEE7FEE7FEE7FEE7FEE7FEE7FEE71C
:100CB000FEE7FEE704480549054A064B7047000079
:100CC0007F04000831010008C0020020C008002095
:100CD000C0040020C004002031490143314A1160A2
:100CE000704770B5002100230F22C47804B32D4C47
:100CF000246804F4E064C4F5E064210AC1F104034B
:100D0000CA40447804FA03F184781440214309016D
:100D1000254C0678A155047804F01F050124AC4049
:100D200005786D11AD0005F1E025C5F8004109E039
:100D3000047804F01F050124AC401C4D06787611A0
:100D400045F8264070BD1A4A0A400243154B1B1F46
:100D50001A60704739B1134A121D12680243114BD1
:100D60001B1D1A6006E00F4A121D126882430D4BCC
:100D70001B1D1A607047042808D14FF0E021096953
:100D800041F004014FF0E022116107E04FF0E02153
:100D9000096921F004014FF0E02211617047000061
:100DA0000000FA050CED00E000E400E080E100E066
:100DB00080FFFF1F10B50446FA48844208D1012184
:100DC000401500F055FD0021601500F051FD17E0C1
:100DD000F548844208D10121001500F049FD0021A9
:100DE000201500F045FD0BE0F048844208D10121B8
:100DF000C80300F03DFD00214FF4004000F038FD35
:100E000010BD30B50246002000235068E84C204059
:100E10000D790C6844EA0524204350609068E54C45
:100E20002040D1E902542C434D7944EA4504204343
:100E30009060D06A20F470000C7C641EE4B22343FE
:100E400040EA0350D06230BD002101600171417160
:100E50008160C16001210174704721B1826842F054
:100E60000102826003E0826822F001028260704722
:100E700021B1826842F48072826003E0826822F4C9
:100E800080728260704710B50023CBB21AB14468FB
:100E90001C43446002E044689C43446010BD816888
:100EA00041F0080181607047014600208A6802F025
:100EB00008020AB1012000E000207047816841F07B
:100EC000040181607047014600208A6802F0040234
:100ED0000AB1012000E00020704721B1826842F48D
:100EE000A002826003E0826822F4A0028260704760
:100EF000014600208A6802F480020AB1012000E065
:100F00000020704710B50A4600210023416821F4F3
:100F10006041531E41EA4331416010BD21B1426836
:100F200042F40062426003E0426822F400624260E0
:100F30007047F0B504460D4600200021092D11DD53
:100F4000E068A5F10A0606EB4607072606FA07F150
:100F50008843A5F10A0606EB460603FA06F10843A4
:100F6000E0600CE0206905EB4507072606FA07F16B
:100F7000884305EB450603FA06F108432061072A7A
:100F80000FDA606B561E06EB86071F2606FA07F17E
:100F90008843561E06EB860605FA06F10843606391
:100FA00022E00D2A0FDA206BD61F06EB86071F26DC
:100FB00006FA07F18843D61F06EB860605FA06F106
:100FC0000843206310E0E06AA2F10D0606EB8607F5
:100FD0001F2606FA07F18843A2F10D0606EB8606E6
:100FE00005FA06F10843E062F0BD21B1826842F4DF
:100FF0008012826003E0826822F48012826070476F
:101000000146C86C80B2704766484C300068704733
:1010100021B1426842F48062426003E0426822F4F7
:1010200080624260704721B1426842F4805242605F
:1010300003E0426822F48052426070470A46002171
:10104000816821F4E04111438160704721B18268D9
:1010500042F40042826003E0826822F4004282602F
:10106000704721B1826842F40212826003E0826814
:1010700022F4021282607047014600208A6802F45E
:1010800000120AB1012000E000207047F0B50446CC
:101090001546002000220026092911DDE068A1F193
:1010A0000A0707EB470C072707FA0CF29043A1F158
:1010B0000A0707EB470703FA07F21043E0600CE06A
:1010C000206901EB410C072707FA0CF2904301EB72
:1010D000410703FA07F210432061A06BC0F30156E9
:1010E000EF1C06F1010CA7EB0C0707EB870C1F2781
:1010F00007FA0CF29043EF1C06F1010CA7EB0C076A
:1011000007EB870701FA07F21043A063F0BD10B5A3
:101110000A4600210023816B21F44011531E41EA4D
:101120000351816310BD08B5002300930090009B1C
:101130000B440093009B1A6008BD08B502460020CE
:101140000090009201F12800009B18440090009844
:10115000006880B208BD0A4600214168164B19405C
:101160001143416070474162826270470A46002124
:10117000416821F01F0111434160704740B10949A6
:101180000831096841F40001064A0832116007E09D
:1011900004490831096821F40001024A083211604B
:1011A000704700000024014000280140003C01403D
:1011B000FFFEF0FFFDF7F1FFFFFD3FFF02460020BD
:1011C00013680B400BB1012000E000207047CA43B8
:1011D0000260704770B502460020002300240B1205
:1011E0005568CEB205EA060415681D4015B10CB16C
:1011F000012000E0002070BD00220A12D3430360EA
:101200007047000010B50446CC48844208D1012143
:10121000042000F02DFB0021042000F029FB46E013
:10122000C748844208D10121082000F021FB002199
:10123000082000F01DFB3AE0C248844208D1012199
:10124000102000F015FB0021102000F011FB2EE013
:10125000BD48844208D10121202000F009FB002173
:10126000202000F005FB22E0B848844208D101218B
:10127000402000F0FDFA0021402000F0F9FA16E0CD
:10128000B348844208D10121802000F0F1FA002106
:10129000802000F0EDFA0AE0AE48844207D1012137
:1012A000801500F0E5FA0021A01500F0E1FA10BD6C
:1012B00010B50121084600F0DBFA0021012000F002
:1012C000D7FA10BD2DE9F041024600250026002086
:1012D00000230024002791F803C00CF00F0591F8BB
:1012E00003C00CF0100CBCF1000F03D091F802C049
:1012F0004CEA050591F800C0BCF1000F31D014682C
:1013000000202BE04FF0010C0CFA00F3B1F800C004
:101310000CEA03069E4220D183004FF00F0C0CFA1A
:1013200003F7BC4305FA03FC4CEA040491F803C03C
:10133000BCF1280F06D14FF0010C0CFA00FCC2F8EA
:1013400014C00AE091F803C0BCF1480F05D14FF07A
:10135000010C0CFA00FCC2F810C0401C0828D1D3C4
:101360001460B1F800C0BCF1FF0F34DD54680020F8
:101370002EE000F1080C4FF0010808FA0CF3B1F868
:1013800000C00CEA03069E4221D183004FF00F0CEF
:101390000CFA03F7BC4305FA03FC4CEA040491F889
:1013A00003C0BCF1280F05D100F1080C08FA0CF8B5
:1013B000C2F8148091F803C0BCF1480F07D100F1C6
:1013C000080C4FF0010808FA0CF8C2F81080401C15
:1013D0000828CED35460BDE8F0814FF6FF7101803C
:1013E000022181700421C170704702460020936879
:1013F0000B400BB1012000E00020704701468868D7
:1014000080B2704702460020D3680B400BB1012028
:1014100000E0002070470146C86880B27047016153
:101420007047416170470AB1016100E04161704756
:10143000C16070474FF480320A43826181618261EA
:1014400082698269704702460020434B18684FF654
:101450008073184040EA021008433F4B1860704701
:101460003E49C8617047F0B50A46002300240021B8
:10147000002500F00046B6F1004F02D1364EF1696A
:1014800001E0354E7168C0F3034583B200F44016A5
:10149000B6F5401F08D121F070612F4E766826F016
:1014A00070662D4F7E6012E000F48016B6F5801F46
:1014B00006D1032606FA05F4A14341F0706106E067
:1014C000460D360103FA06F6B14341F0706122B1D0
:1014D000460D360103FA06F6314300F00046B6F138
:1014E000004F02D11C4EF16101E01B4E7160F0BD56
:1014F00030B500228B071C0F0F2303FA04F2164BA2
:1015000008338C1053F824309343134C08348D1057
:1015100044F8253023468C1053F824308C07240FD0
:1015200000FA04F423430C4C08348D1044F82530A1
:1015300030BD0A49DC3108607047000000080140F6
:10154000000C01400010014000140140001801404F
:10155000001C01400020014000000140000020422A
:10156000DF48006840F00100DD4908600846406837
:10157000DC490840DA49486008460068DA49084012
:10158000D74908600846006820F4802008600846B3
:10159000406820F4FE0048604FF41F0088607047E8
:1015A000CF49096821F48031CD4A1160114609689C
:1015B00021F480211160B0F5803F03D0B0F5802F79
:1015C0000ED106E0C649096841F48031C44A116071
:1015D00007E0C349096841F4A021C14A116000E055
:1015E00000BF00BF704710B5014600220023002055
:1015F0004A11012A02D1BA4C236806E0022A02D11C
:10160000B74C236A01E0B64C636A01F01F02012463
:1016100094401C400CB1012000E0002010BD38B502
:10162000002000900024002500BF3120FFF7DBFFE1
:1016300005460098401C00900098B0F5A06F01D0BE
:10164000002DF2D03120FFF7CEFF08B1012400E0D9
:101650000024204638BD01460020A14A106820F031
:10166000F80040EAC10010607047A0490860704768
:10167000024600209A4B586820F47C1042EA01038D
:101680001843974B58607047984908667047014661
:101690000020934A506820F00300084350607047D0
:1016A0008F48406800F00C007047014600208C4ACB
:1016B000506820F0F0000843506070470146002059
:1016C000874A506820F4E060084350607047014644
:1016D0000020834A506820F4605040EAC100506006
:1016E000704729B17E4A527A02437D4B5A7204E018
:1016F0007B4A527A82437A4B5A7270477B49D8317F
:101700000860704701460020754A506820F4404048
:101710000843506070470021714A20321170704AAE
:1017200082F82010012802D004280AD104E0012107
:101730006B4A2032117005E00521694A2032117090
:1017400000E000BF00BF7047694908607047644906
:10175000096A0143624A1162704765494439086069
:10176000704730B500210022002400235C4D6D68D5
:1017700005F00C0121B1042905D0082923D105E089
:101780005C4D056022E05B4D05601FE0544D6D68C7
:1017900005F47012524D6D6805F48034022505EB96
:1017A00092421CB9544D554305600BE04C4D6D6899
:1017B00005F400351DB1504D5543056002E04D4D17
:1017C0005543056002E04B4D056000BF00BF444D2E
:1017D0006D6805F0F0010909484D6B5C0568DD4056
:1017E00045603F4D6D6805F4E061090A434D6B5C4F
:1017F0004568DD4085603A4D6D6805F46051C90A61
:101800003E4D6B5C4568DD40C560354D6D6805F447
:101810004041890B3A4D6B5CC568B5FBF3F505613A
:1018200030BD29B12E4A526902432D4B5A6104E062
:101830002B4A526982432A4B5A61704729B1284A80
:1018400092690243264B9A6104E0254A92698243D9
:10185000234B9A61704729B1214AD2690243204B38
:10186000DA6104E01E4AD26982431D4BDA61704797
:1018700029B11B4AD2680243194BDA6004E0184AC6
:10188000D2688243164BDA60704729B1144A126954
:101890000243134B1A6104E0114A12698243104B50
:1018A0001A61704712494039086070470F49C8648F
:1018B00070470B49C87170470948406A40F0807012
:1018C00007494862704701460020054A92680A406D
:1018D0000AB1012000E0002070470149887270477A
:1018E000001002400000FFF8FFFFF6FE0000424239
:1018F0008004424200127A0000093D002A000020C4
:101900003A00002010B50446FB48844209D1012169
:101910008803FFF7ADFF00214FF48040FFF7A8FFD9
:1019200032E0F648844209D101214804FFF7ADFFB7
:1019300000214FF40030FFF7A8FF25E0F048844273
:1019400009D101218804FFF7A0FF00214FF4802076
:10195000FFF79BFF18E0EB48844209D10121C8043E
:10196000FFF793FF00214FF40020FFF78EFF0BE0FD
:10197000E548844208D101210805FFF786FF0021D0
:101980004FF48010FFF781FF10BD2DE9F04786B0BE
:1019900005460E460024A24600BFA1460027B08996
:1019A00000B100BF2F462C8A4CF6FF700440F0882F
:1019B00004432C82AC894EF6F3100440B088318980
:1019C0000843718908430443AC81AC8A4FF6FF4059
:1019D0000440B0890443AC8201A8FFF7C2FEC648A8
:1019E000874202D1DDF810A001E0DDF80CA0A88943
:1019F00000F4004040B10AEBCA0000EB0A10316865
:101A00004900B0FBF1F807E00AEBCA0000EB0A104E
:101A100031688900B0FBF1F86420B8FBF0F00401F4
:101A20002009642101FB1089A88900F4004040B11D
:101A3000322000EBC900B0FBF1F000F007000443D6
:101A400008E0322000EB09106421B0FBF1F000F057
:101A50000F0004432C8106B0BDE8F0874FF4165107
:101A6000016000218180C18001810C214181002120
:101A70008181704710B502460020108A4FF2FF03A3
:101A800018400B884C8823438C882343CC882343FD
:101A90001843108210BD0021018041808180C180E7
:101AA000704721B1828942F40052828104E0828928
:101AB0004DF6FF731A4082817047F0B5034600244B
:101AC00000260025002040F66A17B94200D100BF69
:101AD0001846C1F3421401F01F06012707FA06F564
:101AE000012C01D10C3004E0022C01D1103000E0B7
:101AF00014301AB107682F43076002E00768AF434C
:101B00000760F0BD1AB1838A0B43838202E0838AA7
:101B10008B4383827047028A4FF6F0731A40028229
:101B2000028A0A430282704782894FF2FF731A4089
:101B3000828182890A438281704721B1828942F081
:101B40000202828104E082894FF6FD731A4082818D
:101B50007047028A4FF6DF731A400282028A0A43F4
:101B60000282704721B1028A42F48042028204E07C
:101B7000028A4BF6FF731A4002827047C1F30802D3
:101B80008280704701468888C0F3080070478189C9
:101B900041F0010181817047028BD2B20283028B36
:101BA00042EA012202837047028B02F47F420283E1
:101BB000028B0A430283704721B1828A42F02002DD
:101BC000828204E0828A4FF6DF731A408282704775
:101BD00021B1828A42F01002828204E0828A4FF6AA
:101BE000EF731A408282704721B1828A42F0080264
:101BF000828204E0828A4FF6F7731A40828270472D
:101C000021B1828942F40042828103E08289C2F3D9
:101C10000E028281704721B1828A42F40062828280
:101C200004E0828A4FF2FF731A4082827047828AF0
:101C30004FF6FB731A408282828A0A43828270477F
:101C400021B1828A42F00202828204E0828A4FF647
:101C5000FD731A408282704702460020B1F5007F72
:101C600000D100BF13880B400BB1012000E0002021
:101C7000704701F40072B2F5007F00D100BFCA4383
:101C80000280704770B50246002400230025002022
:101C900040F66A16B14200D100BFC1F3421501F00F
:101CA0001F03012606FA03F3012D02D19689334062
:101CB00006E0022D02D1168A334001E0968A3340B5
:101CC0000C12012606FA04F41688344013B10CB144
:101CD000012000E0002070BD10B50022002340F676
:101CE0006A14A14200D100BF0A1201249440A3B299
:101CF000DC43048010BD0000003801400044004077
:101D000000480040004C00400050004010B5044620
:101D1000FE48844208D10121C014FFF7A9FD00212B
:101D2000E014FFF7A5FDC4E0B4F1804F08D1012114
:101D30000846FFF7AAFD00210120FFF7A6FDB8E045
:101D4000F348844208D101210220FFF79EFD0021C3
:101D50000220FFF79AFDACE0EE48844208D1012151
:101D60000420FFF792FD00210420FFF78EFDA0E084
:101D7000E948844208D101210820FFF786FD0021AF
:101D80000820FFF782FD94E0E448844208D1012155
:101D90001020FFF77AFD00211020FFF776FD88E084
:101DA000DF48844208D101212020FFF76EFD002189
:101DB0002020FFF76AFD7CE0DA48844208D1012147
:101DC0004014FFF755FD00216014FFF751FD70E04E
:101DD000D548844209D10121C804FFF749FD0021FB
:101DE0004FF40020FFF744FD63E0D048844209D15E
:101DF00001210805FFF73CFD00214FF48010FFF79B
:101E000037FD56E0CA48844209D101214805FFF751
:101E10002FFD00214FF40010FFF72AFD49E0C548CF
:101E2000844208D101214020FFF72FFD00214020EE
:101E3000FFF72BFD3DE0C048844208D101218020FE
:101E4000FFF723FD00218020FFF71FFD31E0BB4895
:101E5000844208D101218015FFF717FD0021A0154C
:101E6000FFF713FD25E0B648844209D1012108049B
:101E7000FFF7FEFC00214FF48030FFF7F9FC18E07B
:101E8000B048844209D101214804FFF7F1FC002148
:101E90004FF40030FFF7ECFC0BE0AB48844208D174
:101EA00001218804FFF7E4FC00214FF48020FFF7B4
:101EB000DFFC10BD00220288944B98420ED0994B53
:101EC00098420BD0B0F1804F08D0914B984205D08A
:101ED000904B984202D0904B984204D14FF68F73AA
:101EE0001A404B881A438D4B984207D08C4B98422E
:101EF00004D04FF6FF431A40CB881A4302808B88E8
:101F000083850B880385814B98420BD0854B984283
:101F100008D08B4B984205D08A4B984202D08A4B0E
:101F2000984201D10B7A038601238382704770B5F2
:101F3000002400220023058C4FF6FE7635400584F0
:101F4000028C8388048B4FF68F752C40B51E2C4075
:101F50000D882C43751E2A400D892A434D882A433B
:101F60006A4DA8420BD06F4DA84208D0744DA842CC
:101F700005D0744DA84202D0734DA84213D14FF63C
:101F8000F7752A404D892A434FF6FB752A408D8804
:101F90002A434FF6FF652B404FF6FF552B408D89A6
:101FA0002B43CD892B4383800483CD88858602848F
:101FB00070BD70B5002400220023058C4FF6EF762B
:101FC00035400584028C8388048B48F6FF752C40CD
:101FD0004FF6FF452C400D884FF6FF7606EA0525A3
:101FE0002C434FF6DF752A400D8906EA05152A4372
:101FF0004D8806EA05152A43444DA84202D0494DB2
:10200000A8421DD14FF67F752A404D894FF6FF76C5
:1020100006EA05152A434FF6BF752A408D8806EA61
:1020200005152A434FF6FF352B404FF2FF752B4025
:102030008D8906EA85052B43CD8906EA85052B4364
:1020400083800483CD880587028470BD70B5002429
:1020500000220023058C4FF6FF6635400584028C74
:102060008388848B4FF68F752C404FF6FC752C407F
:102070000D882C434FF6FF552A400D894FF6FF7609
:1020800006EA05252A434D8806EA05252A431F4D01
:10209000A84202D0234DA8421DD14FF2FF752A401D
:1020A0004D894FF6FF7606EA05252A434FF6FF35A0
:1020B0002A408D8806EA05252A434EF6FF752B40F7
:1020C0004DF6FF752B408D8906EA05152B43CD890A
:1020D00006EA05152B4383808483CD888587028497
:1020E00070BD70B5002200230024058C4EF6FF76EB
:1020F00035400584038C8488828B48F6FF752A401E
:102100004FF6FF452A400D8820E00000002C0140DA
:102110000004004000080040000C00400010004097
:102120000014004000340140004C014000500140C8
:102130000054014000180040001C004000200040F6
:102140000040014000440140004801404FF6FF7646
:1021500006EA05252A434DF6FF752B400D8906EA50
:1021600005352B434D8806EA05352B43FA4DA84229
:1021700002D0FA4DA84208D14BF6FF752C408D894C
:102180004FF6FF7606EA85152C4384808283CD883E
:10219000A0F84050038470BD828B4FF2FF331A4089
:1021A0008283828B4FF6FF7303EA01231A438283F3
:1021B0007047F0B50C461546002200210026078C1A
:1021C0004EF6FF7C07EA0C070784828B018C4FF6E2
:1021D000FF7707EA043640F6FF473A404FF6FF77AD
:1021E00007EA05273A434FF6FF7707EA03373A43F2
:1021F000D94FB8420ED0D94FB8420BD0B0F1804F72
:1022000008D0D74FB84205D0D64FB84202D0D64FEB
:10221000B84206D14DF6FF77394046F4805739432E
:1022200005E047F6FF57394044F48057394382832D
:102230000184F0BD828B4FF6F3731A408283828B48
:102240000A4382837047F0B50C46154600220021F0
:102250000026078C4FF6FF6C07EA0C070784828B79
:10226000018C4FF6FF7707EA04264FF60C773A40C9
:102270004FF6FF7707EA03172F433A43B64FB842AA
:102280000ED0B64FB8420BD0B0F1804F08D0B44F4B
:10229000B84205D0B34FB84202D0B34FB84206D1CE
:1022A0004FF6FF57394046F48077394305E04FF247
:1022B000FF57394044F48077394382830184F0BD6D
:1022C000028B4FF2FF331A400283028B4FF6FF73EB
:1022D00003EA01231A4302837047F0B50C46154602
:1022E000002200210026078C4FF6EF7C07EA0C073E
:1022F0000784028B018C4FF6FF7707EA041640F63D
:10230000FF473A404FF6FF7707EA03373A434FF665
:10231000FF7707EA05273A438F4FB8420ED08F4F19
:10232000B8420BD0B0F1804F08D08D4FB84205D0E5
:102330008C4FB84202D08C4FB84206D14FF6DF77AF
:10234000394046F01007394305E04FF65F773940D2
:1023500044F01007394302830184F0BD028B4FF62D
:10236000F3731A400283028B0A4302837047F0B56D
:102370000C46154600220021068C4FF6FE773E40A3
:102380000684028B018C4FF60C7632407E1C06EAE6
:1023900003162E433243704EB0420ED06F4EB04201
:1023A0000BD0B0F1804F08D06D4EB04205D06D4ECD
:1023B000B04202D06C4EB04206D14FF6FD763140AD
:1023C00044F00106314305E04FF6F576314044F024
:1023D0000106314302830184F0BD70B505460C4609
:1023E0005D4885420ED05D4885420BD0B5F1804FE7
:1023F00008D05B48854205D05A48854202D05A48E9
:10240000854200D100E000BF208850B92389A2880E
:1024100061882846FFF7ABFFE1882846FFF79EFF5B
:1024200025E0208804280AD12389A28861882846CB
:10243000FFF753FFE1882846FFF742FF17E02088A7
:1024400008280AD12389A28861882846FFF7FBFE65
:10245000E1882846FFF7EEFE09E02389A28861881B
:102460002846FFF7A6FEE1882846FFF795FE70BDD7
:102470002DE9F04105460C4600260127608808B981
:10248000022600E00026A088012801D1022700E0F2
:1024900001272088A0B92389A28861882846FFF7F0
:1024A00066FFE1882846FFF759FF23893A463146FF
:1024B0002846FFF712FFE1882846FFF701FF13E0E7
:1024C0002389A28861882846FFF707FFE18828460C
:1024D000FFF7F6FE23893A4631462846FFF747FFC5
:1024E000E1882846FFF73AFFBDE8F0810A884B886B
:1024F0001A438B881A43CB881A430B891A434B899A
:102500001A438B891A43A0F8442070474FF6FF7195
:10251000818000210180C1804180017270470021CB
:10252000018041808180C180018141818181C1819F
:102530007047002101804180012181800021C180FC
:10254000018170470021018041808180C18001812B
:102550004181818170470000002C0140003401401E
:102560000004004000080040000C004021B1028837
:1025700042F00102028004E002884FF6FE731A4026
:102580000280704731B1B0F8442042F40042A0F814
:10259000442005E0B0F84420C2F30E02A0F8442025
:1025A00070471AB183890B43838102E083898B438F
:1025B000838170478182704741EA0203A0F8483066
:1025C00070471AB183890B43838102E083898B436F
:1025D0008381704701894FF6F8721140018170477D
:1025E0000A46002101894FF68F731940114301817A
:1025F000704730B504460D4629462046FFF7F0FFE8
:10260000208940F00700208130BD2DE9F0410446CB
:102610000D4616461F46602D06D13B460122314627
:102620002046FFF75AFE05E03B4601223146204690
:10263000FFF79DFE29462046FFF7D2FF208940F094
:1026400007002081BDE8F08130B50C4600210189EA
:10265000C9B24FF6FF7505EA032515432543294303
:10266000018130BD2DE9F04105460E4617469846DA
:10267000002443463A4631462846FFF7E5FF2C89B9
:102680004FF6F870044044F007044FF68F70044092
:1026900044F070042C81BDE8F081F0B504460D468D
:1026A00016461F463B46324629462046FFF7CCFFDA
:1026B000208940F480402081F0BD018582827047EE
:1026C0000A46002101884FF68F731940114301809B
:1026D0007047F0B50C4615461E4600210022002327
:1026E0000189028B038C4FF6F877394021434FF66E
:1026F000FC473A4040F201173A434FF6DD773B4042
:102700004FF6FF7707EA06172F433B430181028309
:102710000384F0BD0A460021018B4FF68F731940E8
:102720001143018370470A460021018B48F6FF736D
:1027300019404FF6FF7303EA0223194301837047E0
:102740000A460021818B4FF68F7319401143818314
:1027500070470A460021818B48F6FF7319404FF6F7
:10276000FF7303EA022319438183704721B1028872
:1027700042F08002028004E002884FF67F731A4024
:102780000280704721B1828842F00402828004E016
:1027900082884FF6FB731A408280704721B182888D
:1027A00042F00802828004E082884FF6F7731A40F4
:1027B0008280704721B1828842F00102828004E069
:1027C00082884FF6FE731A40828070470A460021C5
:1027D000018B4FF6F77319401143018370470A4686
:1027E0000021018B4FF2FF7319404FF6FF7303EA8C
:1027F00002231943018370470A460021818B4FF65B
:10280000F77319401143818370470A460021818B79
:102810004FF2FF7319404FF6FF7303EA0223194387
:10282000818370470A460021018B4FF6FB731940E4
:102830001143018370470A460021018B4FF6FF3395
:1028400019404FF6FF7303EA0223194301837047CF
:102850000A460021818B4FF6FB7319401143818397
:1028600070470A460021818B4FF6FF3319404FF61F
:10287000FF7303EA02231943818370470A4600214C
:10288000018B4FF67F7319401143018370470A464D
:102890000021018BC1F30E014FF6FF7303EA0223FF
:1028A0001943018370470A460021818B4FF67F73DD
:1028B00019401143818370470A460021818BC1F37F
:1028C0000E014FF6FF7303EA022319438183704719
:1028D0000A460021018C4FF6FD7319401143018413
:1028E00070470A460021018C4FF6F77319401143D7
:1028F000018470470A460021018C4FF6DF731940AE
:102900004FF6FF7303EA02131943018470470A4626
:102910000021018C4FF67F7319404FF6FF7303EAD5
:1029200002131943018470470A460021018C4FF6B7
:10293000FF5319404FF6FF7303EA02231943018442
:1029400070470A460021018C4FF2FF7319404FF681
:10295000FF7303EA02231943018470470A460021EA
:10296000018C4DF6FF7319404FF6FF7303EA0233F3
:1029700019430184704730B5002301248C40A3B271
:10298000048C9C430484048C02FA01F5ADB22C4300
:10299000048430BD30B5002304248C40A3B2048CE1
:1029A0009C430484048C02FA01F5ADB22C430484E8
:1029B00030BD70B5034600200024184618300125AC
:1029C0008D40ACB21D8CA5431D8409B1082909D1E5
:1029D00000EB6100056825F070050560056815438A
:1029E00005600EE00D1FC5F34E052844056825F46B
:1029F000E045056005684FF6FF7606EA0226354396
:102A0000056070BD21B1028842F00202028004E03C
:102A100002884FF6FD731A400280704721B1028888
:102A200042F00402028004E002884FF6FB731A4071
:102A30000280704721B1828842F08002828004E0E7
:102A400082884FF67F731A408280704702884FF663
:102A5000F7731A40028002880A4302807047828816
:102A60004FF68F731A40828082880A4382807047B3
:102A700002894FF6F8731A40028102890A430281E3
:102A8000704702894FF67F731A40028102890A4318
:102A900002817047818470478185704781867047C5
:102AA0000187704781877047A0F8401070470288FF
:102AB0004FF6FF431A40028002880A4302807047A3
:102AC0000146888E70470146088F70470146888FFF
:102AD00070470146B1F8400070470146888C704746
:102AE0000146088D704702460020138A0B400BB147
:102AF000012000E000207047CA430282704730B5D1
:102B00000246002000230024158A05EA0103958966
:102B100005EA010413B10CB1012000E0002030BD32
:102B2000CA430282704700002DE9FF5F06460D464A
:102B300093464FF000082F46A9462C46AA4606B1F8
:102B400025B94FF0FF3004B0BDE8F09F4FF000080A
:102B500050E0701C10F80800122845D2DFE800F0A1
:102B600012131444441516171B444444441F2938B7
:102B7000250938784D490870084601784CA002F0C4
:102B800043FA32E031E030E02FE02EE02DE001208A
:102B90004C49087029E000204A49087025E099F85E
:102BA000001049A002F030FA1FE04AA002F02CFA0F
:102BB0001BE0A17962792379A068CDE90032CDE9E3
:102BC0000210E378A278218847A002F01DFA0CE0F9
:102BD00050A002F019FA54A002F016FA9AF8001068
:102BE00055A002F011FA00E000BF00BF08F101009B
:102BF00000F0FF0830784045ABDC0020A3E72B480D
:102C0000002101600171704750480068401C4F4925
:102C1000086070474D4800687047012080F31388B2
:102C200000BF00BF4A48006800F4E060494908431B
:102C3000001D47490860BFF3408F00BF00BFFEE79B
:102C400000B5FFF7E1FF00BD08B5002000900121AD
:102C5000684600F083F808BD70B505460E460024AE
:102C60000DB9601E70BD00241BE0295D3A48FEF7D7
:102C700085FF00BF40213848FEF7EEFF0028F9D05D
:102C8000022C0DD3285DFF280AD155213248FEF7CA
:102C900075FF00BF40213048FEF7DEFF0028F9D065
:102CA000641CB442E1D33046DCE7000000000020A1
:102CB0004576743A204556454E545F4C4544202590
:102CC00064200A0005000020525353492025640A5D
:102CD000000000005452414E53504152454E545F43
:102CE00044415441200A0000574946495F4E545020
:102CF000203A205B25642D25642D25642025303263
:102D0000643A253032643A253032645D5B25645D77
:102D1000200A00004D4F44554C4520494E464F2057
:102D20002E2E2E0A00000000574946204D4F4455D4
:102D30004C45202E2E2E0A006D6F64756C655479FB
:102D40007065203A205B25645D200A004000002069
:102D50000CED00E00000FA050048004070B50446A4
:102D60000D46002624B9F1A002F04EF9701E70BD88
:102D70002A462146F54802F0E9F80646AE4205D05B
:102D8000F3A002F041F94FF0FF30F0E73046EEE7F4
:102D900010B504462CB9F5A002F036F94FF0FF301B
:102DA00010BD002020606060FF2020706070002057
:102DB000F6E770B504460D462CB9F7A002F024F9E9
:102DC0004FF0FF3070BD1F21F94802F0EBFA2A46A0
:102DD0002146F748801C02F06EFAF5483B38A0F80F
:102DE0005450012180F83C10FFF714FFF0493B39A3
:102DF000C1F856000020E5E7F8B505460C46164632
:102E00000DB104B12EB9EBA002F0FEF84FF0FF3087
:102E1000F8BD287800F0010098B111212278601CDB
:102E200081542078401C207001206B1C0246002138
:102E30000090084601F04FFF08B1012000E000209B
:102E400030700020E4E72DE9F04104460D460026ED
:102E5000002704B135B9E2A002F0D6F84FF0FF30F8
:102E6000BDE8F081FFF7D6FE074628782178884232
:102E700003D0E5A002F0C8F80126D5F80100D4F887
:102E8000011088420AD0E5480068381A41F2707192
:102E9000884203D3E2A002F0B7F80126012E03D145
:102EA000FFF7B8FEDD4908603046D9E738B505467A
:102EB0000C4605B12CB9DFA002F0A6F84FF0FF30A8
:102EC00038BD002020702878234601220021009080
:102ED000084601F061FF0121204601F0F7FDD5F819
:102EE00001200021012001F00AFE60700020E7E7C8
:102EF0002DE9F04780460C4617461D46089E94F87B
:102F000000900CB105B136B9D6A002F07DF84FF0B3
:102F1000FF30BDE8F087B8F1000F53D11321A4486A
:102F20001F3002F03FFAB9F1010F06D0B9F1020FDC
:102F300012D0B9F1050F43D122E09D4A6D32A2F1C2
:102F40004E01601CFFF758FF012099493B3908707A
:102F500000250020306034E095496B31C81DFFF733
:102F6000A5FF48B992483B38B0F8A600A5F8010083
:102F700003202870306002E04FF0FF30C9E720E006
:102F80007A1E611C8A48233802F095F9781E884918
:102F90003B39C1F82F00102185483B3890F85A2062
:102FA0005B3081545B3890F85A00401C80493B39B3
:102FB00081F85A000320087000250020306000E0EE
:102FC00000BF00BF0020A4E72DE9F04F8DB00646FA
:102FD0008B461746994600200C9082468046002575
:102FE0006C46BBF1000F06D1AAA002F00DF8681ED6
:102FF0000DB0BDE8F08FB9F1010F06D196F8088049
:1030000008F10600384485B201E0781D85B22B46F0
:1030100042463946A5A001F0F7FFFF2004F8010B56
:1030200004F8010B281204F8010B04F8015B307955
:10303000401C04F8010B707904F8010B002004F81F
:10304000010B04F8019B4FF0080AB9F1010F0CD1F4
:1030500004F8018B0AF1010A0DEB0A00424606F161
:10306000090102F028F9C24444442FB10DEB0A00D3
:103070003A46594602F01FF9291D684601F05AFBED
:103080000146E81C0DF80010291D6846FFF7E4FD15
:103090000C900C98002806DA8EA00C9901F0B4FF71
:1030A0006FF00100A4E70020A2E7FEB505460E463A
:1030B0001746002426B98DA001F0A6FF601EFEBDB4
:1030C0006846FFF765FE05208DF8040038483B3858
:1030D00090F83310D0F83300401C354A3B3AC2F820
:1030E0003300C8B28DF805008DF80850082001F0B3
:1030F00034FBADF802003A4631460DF1090002F00A
:10310000DAF80C21684601F015FB8DF80B000C2154
:103110006846FFF7A1FD0446002C06DA21467DA093
:1031200001F072FF6FF00100C9E701E14552523A28
:103130002067697A507574446174612062756620F5
:10314000697320656D707479200A00001C020020EC
:103150004552523A204661696C656420746F207252
:10316000625772697465200A000000004552523AA5
:103170002067697A50726F746F636F6C4865616421
:10318000496E6974206865616420697320656D709B
:103190007479200A000000004552523A206461749C
:1031A0006120697320656D707479200A0000000049
:1031B0005701002067697A44617461506F696E74C9
:1031C000324576656E74204572726F72202C2049EC
:1031D0006C6C6567616C20506172616D0A00000063
:1031E00067697A436865636B5265706F72742045D6
:1031F00072726F72202C20496C6C6567616C205074
:103200006172616D0A00000076616C75654C454421
:10321000204368616E6765640A0000004400002076
:1032200076616C75654C69676874204368616E6788
:1032300065640A0067697A44617461506F696E74ED
:1032400073325265706F727444617461204572729A
:103250006F72202C20496C6C6567616C2050617224
:10326000616D0A0067697A50726F746F636F6C49A1
:10327000737375656450726F636573732045727202
:103280006F72202C20496C6C6567616C20506172F4
:10329000616D0A005B4552525D20206461746120BB
:1032A0004973204E756C6C200A0000006C656E201E
:1032B0003D202564202C20734469644C656E203DBC
:1032C000202564202C646174615F6C656E203D2054
:1032D00025640A00756172742077726974652065CF
:1032E00072726F72202564200A00000067697A52AA
:1032F00065706F727444617461204572726F7220E0
:103300002C20496C6C6567616C20506172616D0A9C
:10331000000000004552523A2075617274207772A5
:10332000697465206572726F72202564200A00003E
:103330000C216846FFF73DFD2046C0E670B5044607
:10334000FFF768FC0546F9492046FFF77CFD012898
:1033500013D1F7A001F058FEF449C91F2046FFF72A
:10336000A5FD28B90222F149C91F0420FFF79DFEDF
:10337000EE482168016021790171F348B5FBF0F155
:1033800000FB1150C8B9F1480068A84215D0F0A060
:1033900001F03AFEE549C91F2046FFF787FD28B92D
:1033A0000222E249C91F0420FFF77FFEDF4821689F
:1033B000016021790171E548056070BD2DE9FE4F7E
:1033C00080460E4617464FF0000B002002908146C3
:1033D0008246002534460090B8F1000F01D006B1B6
:1033E00037B9E1A001F010FE4FF0FF30BDE8FE8FCD
:1033F000404601F02FFD00F0FF0ABAF1000F02D1A4
:103400004FF0FF30F2E74FF000095DE0012201A923
:10341000404601F04AFD8346BBF1000F52D0DE4822
:103420000078FF281FD19DF80400FF281BD1DB483E
:10343000007848B9FF20207060700220D8490880C9
:103440000120D649087034E0D5480088042830DDD2
:10345000D3480088A8422CD0FF2020706070022042
:10346000CF49088025E0CC480078FF2803D19DF89B
:10347000040055281DD0C9480078012819D19DF8AD
:103480000400C74909886054C5480088401CC449E5
:1034900008800846008804280BDD0094009C6088A2
:1034A00001F05BF9001D85B2BD480088A84200D13B
:1034B0000CE09DF80400B8490870BA480078401C38
:1034C000B849087009F10109D1459FDB00BFB44834
:1034D0000088042823DDB2480088A8421FD1B048E4
:1034E0000188204601F026F90290AD480088401E70
:1034F000215C029881420FD12A462146304601F0D4
:10350000DAFE3D800020A5490870A5490880A5493C
:103510000870A149087069E76FF0010066E70120B3
:1035200064E710B500248148AD3890F83C0000B93C
:1035300010BD9DA001F068FD7C48AD38B0F8541076
:103540003D30FFF789FB04467848AD38B0F85400A9
:10355000A04202D09CA001F057FDFFF75BFB73492E
:10356000AD39C1F8560000BFE2E770B504466F4DB3
:10357000703D34B9AFF2E03001F046FD4FF0FF305E
:1035800070BD2879401C2179884204D11F216748E9
:10359000723801F007FF0020F2E73EB5044600252F
:1035A00024B98FA001F030FD681E3EBD2068009058
:1035B000606801909DF80400401CC0B28DF80400C2
:1035C000052001F0CAF8ADF802000921684601F0B3
:1035D000B1F88DF8080009216846FFF73DFB054664
:1035E000002D04DA2946AFF2D42001F00DFD284663
:1035F000DBE710B54D48AD3890F83C0001282CD1E0
:103600004A48AD3890F83B00022821DAFFF702FB68
:103610004649AD39D1F85610401AC8281DD9FFF7D0
:10362000F9FA04464148AD3890F83B30D0F85620BE
:10363000214676A001F0E8FCFFF773FF3B48AD3868
:1036400090F83B00401C3949AD3981F83B0004E05B
:103650001F213648723801F0A5FE10BD30B59DB06F
:10366000044600252CB973A001F0CEFC681E1DB0E5
:1036700030BD6846FFF78CFB02208DF804006079AE
:103680008DF8050077A103C9CDE9020178A103C92E
:10369000CDE9040179A103C9CDE908017AA103C9E3
:1036A000CDE9060120227BA10AA801F049FE2022D3
:1036B00081A10DF1520001F0FEFD0020CDF84A007D
:1036C000CDF84E009DF851008DF851009DF8510045
:1036D00040F002018DF85110002001F03EF8ADF8E5
:1036E00048006F2001F039F8ADF8020073216846F8
:1036F00001F020F88DF8720073216846FFF7ACFAEC
:103700000546002D04DA2946AFF2F83001F07CFCC2
:103710002846ACE7FEB504460E46002524B96FA046
:1037200001F072FC681EFEBDEEE00000C901002041
:103730006368616E6765642C207265706F727420B7
:10374000646174610A000000C0270900480000207D
:10375000496E666F3A2036303053207265706F7252
:103760007420646174610A0067697A50726F746FC3
:10377000636F6C4765744F6E655061636B65742051
:103780004572726F72202C20496C6C6567616C20E9
:10379000506172616D0A0000500000204C00002052
:1037A0004E000020510000205761726E696E673A2A
:1037B0002074696D656F75742C20726573656E6415
:1037C0002064617461200A004552523A2072657388
:1037D000656E642064617461206572726F720A00A4
:1037E0004552523A2067697A50726F746F636F6CFA
:1037F000436F6D6D6F6E41636B206461746120690E
:103800007320656D707479200A0000005761726E34
:10381000696E673A67697A50726F746F636F6C5242
:103820006573656E6444617461202564202564209D
:1038300025640A0067697A50726F746F636F6C4712
:103840006574446576696365496E666F204572727A
:103850006F72202C20496C6C6567616C205061721E
:10386000616D0A00303030303030303400000000FC
:103870003030303030303032000000003033303300
:1038800030303030000000003033303130313030F3
:103890000000000039636663356533336532643197
:1038A0003461323138316235363734343739373371
:1038B0003961653500000000363761346362366473
:1038C00061303665343936333964323864353537EA
:1038D00039653932613766640000000067697A50E3
:1038E000726F746F636F6C4572726F72436D642098
:1038F0004572726F72202C20496C6C6567616C2078
:10390000506172616D0A00006846FFF741FA1220AB
:103910008DF8040060798DF80500062000F01DFF89
:10392000ADF802008DF808600A21684600F002FF39
:103930008DF809000A216846FFF78EF90546002D2B
:1039400004DA2946AFF2346001F05EFB2846FEBD82
:1039500070B5044625462CB9FCA001F055FB4FF08C
:10396000FF3070BDFE48A9680160E9684160298A9E
:103970000181A97C8172A0F1B301B1F8B30000F01C
:10398000ECFEF749B339A1F8B300D1F8BB0000F061
:10399000F1FEF349B339C1F8BB000E21F048B3384A
:1039A00090F8802081308154813890F88000401C4C
:1039B000EB49B33981F88000042008700020D0E77B
:1039C00010B5FFF727F9044600BFFFF723F9001BE6
:1039D000B0F5167FF9D9FFF720F910BD10B50446F0
:1039E0002CB9E0A001F010FB4FF0FF3010BD208992
:1039F00000F0B3FE2081E7480078C0F38000217A10
:103A0000C1F3800188425ED0207AC0F38000002894
:103A10002DD0207A00F0010088B10021D048B338C1
:103A200090F86D206E3081546E3890F86D00401C17
:103A3000CB49B33981F86D00D7A001F0E5FA207ABF
:103A4000C0F3400000283ED00121C548B33890F8AB
:103A50006D206E3081546E3890F86D00401CC04966
:103A6000B33981F86D00D4A001F0CEFA2BE0207AB2
:103A700000F0010088B10021B948B33890F86D20FA
:103A80006E3081546E3890F86D00401CB449B339E3
:103A900081F86D00C0A001F0B7FA207AC0F34000B1
:103AA00088B10221AE48B33890F86D206E30815451
:103AB0006E3890F86D00401CA949B33981F86D004B
:103AC000C4A001F0A1FAB3480078C0F3C000217A85
:103AD000C1F3C001884230D0207AC108AD480078D7
:103AE00061F3C300AB490870207AC0F3C00090B105
:103AF00003219B48B33890F86D206E3081546E38A6
:103B000090F86D00401C9649B33981F86D00B8A05B
:103B100001F07AFA11E004219148B33890F86D2051
:103B20006E3081546E3890F86D00401C8C49B3396A
:103B300081F86D00B6A001F067FA96480078C0F3EE
:103B40000010217AC1F30011884230D0207A010997
:103B50009048007861F304108E490870207AC0F311
:103B6000001090B105217E48B33890F86D206E307A
:103B700081546E3890F86D00401C7949B33981F852
:103B80006D00ABA001F040FA11E006217448B33893
:103B900090F86D206E3081546E3890F86D00401CA6
:103BA0006F49B33981F86D00A9A001F02DFA794869
:103BB0000078C0F34010217AC1F34011884230D020
:103BC000207A41097348007861F345107149087003
:103BD000207AC0F3401090B107216148B33890F8C3
:103BE0006D206E3081546E3890F86D00401C5C4939
:103BF000B33981F86D009FA001F006FA11E00821A9
:103C00005748B33890F86D206E3081546E3890F874
:103C10006D00401C5249B33981F86D009CA001F041
:103C2000F3F95C484078C0F3C001607AC0F3C0008B
:103C3000814230D0607AC1085648407861F3C300B1
:103C400054494870607AC0F3C00090B10B214448D9
:103C5000B33890F86D206E3081546E3890F86D0056
:103C6000401C3F49B33981F86D0091A001F0CCF9B7
:103C700011E00C213A48B33890F86D206E30815431
:103C80006E3890F86D00401C3549B33981F86D00ED
:103C90008EA001F0B9F93F484078C0F30011607A76
:103CA000C0F30010814230D0607A01093948407871
:103CB00061F3041037494870607AC0F3001090B186
:103CC00009212748B33890F86D206E3081546E3842
:103CD00090F86D00401C2249B33981F86D0083A033
:103CE00001F092F911E00A211D48B33890F86D20D7
:103CF0006E3081546E3890F86D00401C1849B3390D
:103D000081F86D0080A001F07FF90D211448B338CF
:103D100090F86D206E3081546E3890F86D00401C24
:103D20000F49B33981F86D00607A00F0070081F81F
:103D3000B200084690F8B2107AA001F065F90220AE
:103D40000749B3390870002050E600004552523A46
:103D5000204E545020697320656D707479200A00DC
:103D6000CF01002067697A50726F746F636F6C4D7A
:103D70006F64756C65537461747573204572726FEE
:103D800072202C20496C6C6567616C2050617261F7
:103D90006D0A0000520000204F6E426F617264692C
:103DA0006E673A20536F66744150206F72205765DA
:103DB00062206D6F64650A004F6E426F61726469C4
:103DC0006E673A204169724C696E6B206D6F646555
:103DD0000A0000004F6E426F617264696E673A209C
:103DE00053746174696F6E206D6F64650A00000022
:103DF00057694669207374617475733A20696E203F
:103E000062696E64696E67206D6F64650A00000008
:103E100057694669207374617475733A206F7574BD
:103E20002062696E64696E67206D6F64650A0000C8
:103E300057694669207374617475733A20636F6EB5
:103E40006E656374656420726F757465720A000034
:103E500057694669207374617475733A2064697395
:103E6000636F6E6E656374656420726F75746572DE
:103E70000A00000057694669207374617475733ACB
:103E800020636F6E6E6563746564206D326D0A0029
:103E900057694669207374617475733A2064697355
:103EA000636F6E6E6563746564206D326D0A000029
:103EB00057694669207374617475733A2061707034
:103EC00020636F6E6E6563740A000000576946696F
:103ED000207374617475733A206E6F206170702066
:103EE000636F6E6E6563740A00000000576946696F
:103EF000207374617475733A20696E2074657374ED
:103F0000206D6F64650A000057694669207374610B
:103F10007475733A206F75742074657374206D6FB7
:103F200064650A0052535349206973202564200AAE
:103F30000000000010B52E20F7490860F748C8605F
:103F4000084600F069FF18B9F5A001F05DF802E03D
:103F5000F8A001F059F84FF48071FB4801F022FA03
:103F600010BD30B587B005460024062D7ED2DFE8AF
:103F700005F003316193C1F001A8FEF709FF0B20A2
:103F80008DF80800F04890F83310D0F83300401C4A
:103F9000ED4AC2F83300C8B28DF80900052000F0E0
:103FA000DCFBADF80600092101A800F0C3FB8DF889
:103FB0000C00092101A8FEF74FFE0446002C04DA8C
:103FC0002146AFF6B04001F01FF8092101A8FEF725
:103FD000F0FEF0E004A8FEF7DBFE09208DF81400E7
:103FE000D94890F83310D0F83300401CD64AC2F8B4
:103FF0003300C8B28DF815008DF81850062000F077
:10400000ACFBADF812000A2104A800F093FB8DF878
:1040100019000A2104A8FEF71FFE0446002C04DA4A
:104020002146AFF6105000F0EFFF0A2104A8FEF77A
:10403000C0FEC0E004A8FEF7ABFE09208DF8140016
:10404000C14890F83310D0F83300401CBE4AC2F883
:104050003300C8B28DF815008DF81850062000F016
:104060007CFBADF812000A2104A800E09FE000F0FC
:1040700061FB8DF819000A2104A8FEF7EDFD044646
:10408000002C04DA2146AFF6745000F0BDFF0A217F
:1040900004A8FEF78EFE8EE001A8FEF779FE13203D
:1040A0008DF80800A84890F83310D0F83300401C71
:1040B000A54AC2F83300C8B28DF80900052000F007
:1040C0004CFBADF80600092101A800F033FB8DF888
:1040D0000C00092101A8FEF7BFFD0446002C04DAFC
:1040E0002146AFF6D05000F08FFF092101A8FEF75E
:1040F00060FE60E001A8FEF74BFE15208DF8080079
:10410000914890F83310D0F83300401C8E4AC2F822
:104110003300C8B28DF80900052000F01EFBADF891
:104120000600092101A800F005FB8DF80C0009210B
:1041300001A8FEF791FD0446002C04DA2146AFF6F3
:104140002C6000F061FF092101A8FEF732FE32E089
:10415000FFE701A8FEF71CFE29208DF808007A4829
:1041600090F83310D0F83300401C774AC2F833007F
:10417000C8B28DF80900052000F0EFFAADF806008E
:10418000092101A800F0D6FA8DF80C00092101A838
:10419000FEF762FD0446002C04DA2146AFF68C607F
:1041A00000F032FF092101A8FEF703FE03E067A03B
:1041B00000F02AFF00BF00BF204607B030BD3EB56B
:1041C00000246846FEF7E4FD17208DF804005E48E1
:1041D00090F83310D0F83300401C5B4AC2F833002B
:1041E000C8B28DF80500052000F0B7FAADF802005E
:1041F0000921684600F09EFA8DF8080009216846FA
:10420000FEF72AFD0446002C03DA214655A000F0F3
:10421000FBFE09216846FEF7CCFD3EBD3EB50024FD
:104220006846FEF7B5FD21208DF80400464890F859
:104230003310D0F83300401C434AC2F83300C8B2F0
:104240008DF8050000208DF80800062000F085FAA2
:10425000ADF802000A21684600F06CFA8DF80900FA
:104260000A216846FEF7F8FC0446002C03DA2146D2
:104270003CA000F0C9FE0A216846FEF79AFD3EBD4B
:1042800070B5044625462CB93EA000F0BDFE4FF0A7
:10429000FF3070BD412205F108012B48BF3001F00D
:1042A0000AF80F21284890F89320943081549438CC
:1042B00090F89300401C244981F893000520087071
:1042C0000020E6E72DE9F04190B0054600260020E9
:1042D0000390029000248046002735B92DA000F0FD
:1042E00093FE601E10B0BDE8F081FFF782F903AACB
:1042F0001549491C0848FFF761F80646002E67D1AA
:104300002EA000F081FE104C641C20790F2860D094
:104310006BDC0E285FD25FE01C0200202C02002024
:10432000726243726561746520537563636573736C
:10433000200A0000726243726561746520466169FB
:104340006C64200A000000001C0100204552523A13
:10435000204366674D6F6465206572726F72210A33
:10436000000000004552525B4E54505D3A2075618A
:104370007274207772697465206572726F7220257D
:1043800064200A004E545020697320656D70747962
:10439000200A000047697A7769747348616E646C1B
:1043A00065204572726F72202C20496C6C656761C4
:1043B0006C20506172616D0A000000004765742036
:1043C0004F6E65205061636B6574210A0000000028
:1043D0007CE04DE009E070E0DFE800F06F166F1A56
:1043E0006F6F42376F6F436F443B182851D006DC24
:1043F000112846D0142845D016285ED133E0222853
:1044000051D02A2859D12FE02046FFF727F95CE048
:10441000E279A1798EA000F0F7FD02A8009007F1E3
:104420000900BDF80C301A1A8D48C11904AB40467A
:10443000FEF75EFD40B9E37904A92046029AFEF733
:10444000C3FD88A000F0E0FD3FE02046FFF7A5F89F
:104450003BE02046FFF7A1F82046FFF7BFFA34E023
:1044600000BF00BF00BF00BF2046FFF77EF82CE072
:104470002046FFF792F87EA000F0C6FDFFF7A0FAF5
:1044800023E022E02046FFF770F87EA000F0BCFD9C
:104490001BE02046FFF769F82046FFF759FA81A094
:1044A00000F0B2FD11E02046FFF75FF82046FFF76D
:1044B000E7FE82A000F0A8FD07E002212046FFF7FA
:1044C00029F985A000F0A0FD00BF0EE016F1020F53
:1044D0000BD1634C083C01212046FFF71BF984A057
:1044E00000F092FD6FF00100FCE65D4809380078AD
:1044F000062850D2DFE800F04F0313232F3F00209F
:104500005749093908700522A831A1F14E00FEF77C
:104510000BFB13215248513000F044FF3CE00020D7
:104520004F49093908700122B231A1F14500FEF767
:10453000FBFA13214A48643000F034FF2CE00020DD
:104540004749093908700846D0F82F2018315A30E9
:10455000FEF7EAFA20E000204149093908700C22F0
:10456000B331A1F13300FEF7DFFA13213C48773075
:1045700000F018FF10E00020394909390870412285
:10458000BF31A1F12C00FEF7CFFA412134488A3027
:1045900000F008FF00E000BF00BF2846FEF7CEFE97
:1045A00000209FE62DE9F04186B006460F464FF009
:1045B00000086C46B81D85B23EB953A000F024FD3A
:1045C0004FF0FF3006B0BDE8F081FF2004F8010B8A
:1045D00004F8010B281204F8010B04F8015B052014
:1045E00004F8010B1E48093890F83310D0F8330056
:1045F000401C1B4A093AC2F8330004F8011B002092
:1046000004F8010B04F8010B062004F8010B3A46EC
:1046100031460DF1090000F04EFE291D684600F0FC
:1046200089F80146E81C0DF80010291D6846FEF7C0
:1046300013FB8046B8F1000F03DA41463C4800F016
:10464000E3FC291D6846FEF7B4FB0020BAE7000032
:10465000666C6167202578202578200A000000001C
:104660002501002041636B44617461203A200A00F7
:104670007265706F72743A4D4355207265626F6F48
:1046800074210A0041636B2050524F4455435449F2
:104690004F4E5F4D4F4445207375636365737320C0
:1046A0000A00000041636B204745545F5554542075
:1046B00073756363657373200A00000041636B20A8
:1046C0004745545F4D6F64756C6520737563636512
:1046D0007373200A000000004552523A20636D6453
:1046E00020636F6465206572726F72210A0000009A
:1046F0004552523A20636865636B2073756D20657F
:1047000072726F72210A00005B4552525D20676928
:104710007A77697473506173737468726F756768C0
:1047200044617461204572726F72200A00000000BB
:104730001433000810B502460024002302B109B961
:10474000002010BD022303E0D05C2044C4B25B1CF7
:10475000481E9842F8D82046F3E701B581B0002002
:104760000090694601AA5078087010784870BDF82A
:1047700000000CBD0146080601F47F4240EA022019
:1047800001F47F0240EA122040EA1160704710B540
:1047900002460024302A05DB392A03DCA2F130006E
:1047A000C3B20EE0412A05DB462A03DCA2F1370042
:1047B000C3B206E0612A04DB662A02DCA2F15700DC
:1047C000C3B2302905DB392903DCA1F13000C4B2C2
:1047D0000EE0412905DB462903DCA1F13700C4B214
:1047E00006E0612904DB662902DCA1F15700C4B2AE
:1047F00004EB0310C0B210BD70B5044600250026BE
:10480000204600F039FD06460CB9681E70BD002533
:1048100005E0605D302801D00020F7E76D1CB5424F
:10482000F7D30120F2E72DE9F043034600BF00254E
:10483000002400260027012901D002290DD1A3F16F
:10484000010C4FF06408BCFBF8F4BCFBF8F908FB62
:1048500019C501F10C06174609E04FF0640CB3FBD3
:10486000FCF4B3FBFCF80CFB18350E46174606F1BA
:10487000010C4FF01A080CFB08FC4FF00A08BCFBB7
:10488000F8FC05EB950808EB94084FF0020909FBCA
:104890001488C444BC44ACF10100002806DB4FF08E
:1048A000070C90FBFCF80CFB180C07E04FF0070C12
:1048B00090FBFCF80CFB180C0CF1070C6046BDE8F3
:1048C000F08301460A46C81701EB90708010A1EBF7
:1048D000800070B9642091FBF0F300FB131030B935
:1048E0004FF4C87091FBF0F300FB131008B90120DE
:1048F00070470020FCE710B504462046FFF7E1FFB3
:1049000010B14FF4B77010BD40F26D10FBE72DE908
:10491000F04190B080460E4640F2B27530226949AF
:1049200001A800F00DFD344604F5E14400BF11E09C
:104930002846FFF7E0FF074640F2A3207843B4EB98
:10494000C01F06D340F2A3207843A4EBC0146D1C13
:1049500000E001E0002CEBD100BFA8B2ADF83400BC
:10496000002518E0BDF83400FFF7ABFF08B11D20AB
:10497000029001A850F8250040F2A3214843B4EB6F
:10498000C01F07D301A850F825004843A4EBC0146A
:104990006D1C00E001E0002CE4D100BF1C2002905F
:1049A000681CC0B28DF83600012506E046488442F6
:1049B00002D3241A6D1C00E001E0002CF6D100BFE8
:1049C000E8B28DF837004FF46160B4FBF0F0C0B28C
:1049D0008DF838004FF46160B4FBF0F100FB11403A
:1049E0003C21B0FBF1F0C0B28DF839003C20B4FBA3
:1049F000F0F100FB11408DF83A00CDF83B600D98C6
:104A0000C8F800000E98C8F80400BDF83C00A8F8EB
:104A100008009DF83E0088F80A0010B0BDE8F0815B
:104A20002DE9F05F80460E46914600241CE016F802
:104A300014A06000401C16F800B0504600F0D4FAF4
:104A40003038C5B2092D01DDE81FC5B2584600F067
:104A5000CBFA3038C7B2092F01DDF81FC7B207EB18
:104A6000051008F80400641C4C45E0DBBDE8F09F2D
:104A7000F0B5034600201EE00E5CF71706EB177733
:104A80003F1107F130050E5CF71706EB17773F1162
:104A9000A6EB07173037FCB2392D01DDEE1DF5B25C
:104AA000392C01DDE61DF4B203F81050012606EBA7
:104AB00040069C55401C9042DEDB002603F8126045
:104AC000F0BD0000406400088051010030B502468E
:104AD0000B460021002400250AB9481E30BD0021E4
:104AE00008E0545C581A401E155C5554581A401E74
:104AF0001454491CB1EB530FF3D30020EEE710B56B
:104B000003460020541AB4FBF3F010BD10B5034661
:104B1000002002FB031010BD2DE9F04704460E46AD
:104B2000154600273146284601F014FC81462146EF
:104B300001F04EFA804601F00DFB07463846BDE80D
:104B4000F0872DE9F04704460E4615460027284613
:104B500001F020FB8146214601F030FB80463146C2
:104B600001F0D4F907463846BDE8F087024612B195
:104B700002F0070028B9082901D800207047012059
:104B8000FCE702F00700C0F10800884201D30020D2
:104B9000F4E70120F2E72DE9F04705468846144680
:104BA0001E464FF00009CA460027002314B9581EBC
:104BB000BDE8F087EB0841462846FFF7D7FF0746D8
:104BC0003FB9E05C05F0070106FA01F10843E05443
:104BD0001DE0012F1BD1F0B205F00701C1F1080162
:104BE00040FA01F905F00700C0F10801FF20084173
:104BF00000EA060A581C205C40EA0900591C60546F
:104C0000E05C05F007010AFA01F10843E0540020D6
:104C1000CEE72DE9F04F8FB004460F4690461D4673
:104C20000026B246B146B34600200E90B8F1000F00
:104C300000D025B94FF0FF300FB0BDE8F08F4FEA3C
:104C4000D4092A46414601A800F035FB012D09D9B7
:104C5000294601A8FFF73AFFB0F1FF3F02D14FF01C
:104C6000FF30E9E739462046FFF780FF8246BAF178
:104C7000000F0CD101A810F8090004F00701084149
:104C8000C7F10802FF2111410840064321E0BAF1B3
:104C9000010F1ED101A909F10100085C04F0070110
:104CA000C1F10801791AC1F10802FF21114100EA9E
:104CB000010B01A810F8090004F0070108410E904B
:104CC00004F00700C0F108010BFA01F006430E984A
:104CD00006433046B0E72DE9F04F8FB005460C464D
:104CE00016469946189F4FF0000AD34600200E90B2
:104CF0008046B9F1000F00D027B94FF0FF300FB058
:104D0000BDE8F08F3A46494601A800F0D4FA012FD9
:104D100009D9394601A8FFF7D9FEB0F1FF3F02D10A
:104D20004FF0FF30EBE731462046FFF71FFF82468A
:104D3000BAF1000F0CD101A8405D04F00701084151
:104D4000C6F10802FF211141084040EA080821E0AD
:104D5000BAF1010F1ED101A9681C085C04F007011B
:104D6000C1F10801711AC1F10802FF21114100EAE5
:104D7000010B01A8405D04F0070108410E9004F00A
:104D80000700C0F108010BFA01F040EA08080E988C
:104D900048EA00084046B2E72DE9F04704460D46D0
:104DA0001746089E4FF00009CA46C8461BB94FF087
:104DB000FF30BDE8F08739462846FFF7D7FE80462A
:104DC000B8F1000F07D1185D05F0070106FA01F1EF
:104DD000084318551EE0B8F1010F1BD1F0B205F0E1
:104DE0000701C1F1080140FA01F905F00700C0F11F
:104DF0000801FF20084100EA060A601C185C40EA2E
:104E00000900611C5854185D05F007010AFA01F108
:104E1000084318550020CCE7014611B94FF0FF3088
:104E20007047C8684860C86888600020F8E7014695
:104E300011B94FF0FF3070470020C86048608860AB
:104E4000086000BFF7E7014611B94FF0FF30704727
:104E50000868FCE700B5024612B94FF0FF3000BD0C
:104E600050689168884201D10020F8E75068916845
:104E7000884203D290685168401AF0E71046FFF765
:104E8000E2FF51689368C91A401AE8E730B5044652
:104E900014B94FF0FF3030BD2046FFF7D4FF054670
:104EA0002046FFF7D7FF281AF5E72DE9F041044621
:104EB0000F461646002514B9681EBDE8F08117B9E3
:104EC0004FF0FF30F9E76068A168884214D22046AD
:104ED000FFF7C0FFB04201D9304602E02046FFF79D
:104EE000B9FF054661682A46384600F0E4F9606873
:104EF000284460602846E0E72046FFF7A4FF616889
:104F0000E268891A401AB0420AD9354661682A46D1
:104F1000384600F0D0F96068284460602846CCE745
:104F20002046FFF790FF6168E268891A451A6168B8
:104F30002A46384600F0BFF9E0686060721B7919B4
:104F40002046FFF7B2FF05442846B6E72DE9F041B9
:104F500004460F461546002604B11FB94FF0FF3036
:104F6000BDE8F0812046FFF791FFA84202D86FF01C
:104F70000100F5E76068A16888422AD82046FFF75B
:104F800062FFA168E268891A461AB54213D8A06880
:104F90002A46394600F08FF9A0682844A0602046D0
:104FA000FFF751FFE1680844A168884201D1E06839
:104FB000A0602846D4E7A0683246394600F07BF965
:104FC000E068A060AA1BB9192046FFF7BFFF304474
:104FD000C6E7A0682A46394600F06DF9A068284463
:104FE000A0602846BCE7704710B5044600F000FA00
:104FF0000068005D000704D5DF2C02D0A4F120007A
:1050000010BD204610BD00000FB4044910B503AA1E
:10501000029800F04FFA10BC5DF814FB2400002049
:1050200070B5044685690068C10601D5302600E0E8
:105030002026C00707D070BDD4E901213046904733
:10504000206A401C20626D1EF6D570BD70B5044606
:1050500085690078C00707D170BDD4E901212020FF
:105060009047206A401C20626D1EF6D570BD00007E
:105070002DE9F0410646002410687529314616A531
:1050800010D0AFF30080002802DA404213A507E0F9
:1050900031688A0701D512A502E0490704D511A598
:1050A000012401E0AFF3008000210A2206F1240769
:1050B00009E0B0FBF2FCB0FBF2F302FB1C00303065
:1050C00078541846491C0028F3D123462A46304616
:1050D000BDE8F04100F094B9000000002D00000090
:1050E0002B0000002000000070B504460D4621464C
:1050F0001068AFF300802188090502D50F4A7A4471
:1051000002E00E4A7A440E32002104F1240305E045
:1051100000F00F060009965D5E54491C0028F7D187
:1051200020780023000704D5702D02D009B1022396
:1051300011322046BDE8704000F062B96E130000E5
:105140002DE9F05F894604464FF0000ADFF824B1EC
:10515000FB44C0F820A02046E168884700287DD0A5
:10516000252806D0D4E901219047206A401C2062FE
:10517000F1E700255F462046E1688847202806467B
:1051800007DB312E05D2B81910F8200C08B1054301
:10519000F1E7A80701D525F00405C4F81CA00027F5
:1051A000C4F818A02A2E09D0304600F04DFA38B3C2
:1051B00004EB8708303EC8F8186019E059F8041B62
:1051C000204604EB87029161E1688847012F06467B
:1051D00018D1E069002820DA25F020051DE0D8F874
:1051E000180000EB800006EB40003038C8F81800CB
:1051F0002046E1688847064600F026FA0028EED1EE
:10520000012F0AD02E2E08D12046E16888477F1C46
:105210000646022F45F02005C4DBA069002803DA0A
:10522000404245F00105A061E80701D025F01005D6
:10523000A6B1A6F14100192802D8203645F4006530
:105240004A463146204625604D46FAF7ABFF60B12D
:10525000012807D0ED1D25F0070000E007E000F170
:10526000080978E705F1040975E730467AE7206A0E
:10527000BDE8F09F4413000010B5431C02E010F895
:10528000011B71B18107FAD14FF0013202C88C1AAB
:105290008C4314EAC211F9D0C01A0A0603D0C01E0A
:1052A00010BDC01A10BD0A0401D0801E10BD090235
:1052B000FCD0401E10BD032A40F2308010F0030CD9
:1052C00000F0158011F8013BBCF1020F624498BF59
:1052D00011F801CB00F8013B38BF11F8013BA2F1F6
:1052E000040298BF00F801CB38BF00F8013B11F071
:1052F000030300F02580083AC0F0088051F8043B11
:10530000083A51F804CBA0E80810F5E7121D5CBF7D
:1053100051F8043B40F8043BAFF30080D20724BFB0
:1053200011F8013B11F801CB48BF11F8012B24BF44
:1053300000F8013B00F801CB48BF00F8012B704793
:1053400010B5203AC0F00B80B1E81850203AA0E820
:105350001850B1E81850A0E81850BFF4F5AF5FEA54
:10536000027C24BFB1E81850A0E8185044BF18C907
:1053700018C0BDE810405FEA827C24BF51F8043BAE
:1053800040F8043B08BF7047D20728BF31F8023B02
:1053900048BF11F8012B28BF20F8023B48BF00F896
:1053A000012B70474FF000020429C0F0128010F06A
:1053B000030C00F09380CCF1040CBCF1020F18BF79
:1053C00000F8012BA8BF20F8022BA1EB0C0100F084
:1053D00085B85FEAC17C24BF00F8012B00F8012BDF
:1053E00048BF00F8012B70477047704770477047FF
:1053F00010B500F099F8001D10BD00BF5D0200005F
:105400002DE9F0470D4699469246044600F12408DE
:105410000168880604D5E06921F01001216000E0F0
:105420000120A84201DD471B00E00027A1697A198D
:1054300002EB0900081AA0612078C00602D42046B9
:10544000FFF7EEFD002608E0D4E901211AF8060076
:105450009047206A401C761C20624E45F4DB207881
:10546000C0060AD52046FFF7DBFD06E0D4E901219E
:1054700030209047206A401C2062381EA7F10107A7
:10548000F4DC07E0D4E9012118F805009047206A10
:10549000401C2062281EA5F10105F3DC2046FFF721
:1054A000D5FD2078000602D50220BDE8F087012056
:1054B000FBE70000074B70B50D467B4400F03DF85C
:1054C0000446284600F04CF810B14FF0FF3070BD94
:1054D000204670BDA1B6FFFF4FF0000200B5134695
:1054E00094469646203922BFA0E80C50A0E80C5004
:1054F000B1F12001BFF4F7AF090728BFA0E80C50B5
:1055000048BF0CC05DF804EB890028BF40F8042BAD
:1055100008BF704748BF20F8022B11F0804F18BF1A
:1055200000F8012B70470000004870477C02002003
:1055300001694A1C02610878704700B58FB0CDE957
:1055400001310021059105497944CDE90310114647
:105550006846FFF7F5FD0FB000BD0000E5FFFFFF57
:10556000007B00F080007047004870475C0200201C
:105570007546FFF7F9FFAE4605006946534620F031
:105580000700854618B020B5FBF794FBBDE8204026
:105590004FF000064FF000074FF000084FF0000BEF
:1055A00021F00701AC46ACE8C009ACE8C009ACE8A2
:1055B000C009ACE8C0098D4670470446AFF30080CF
:1055C0002046FAF70DFE00004FF0013C50F8042B86
:1055D00051F8043B9A4221D1A2EB0C03934313EA06
:1055E000CC1317D150F8042B51F8043B9A4215D133
:1055F000A2EB0C03934313EACC130BD150F8042B0A
:1056000051F8043B9A4209D1A2EB0C03934313EAED
:10561000CC13DBD04FF00000704700BFD01A01BAA6
:10562000B1FA81F101F0180122FA01F0CB40C1F189
:105630002001DBB2C0B2C01A2CFA01F3D11A914397
:1056400011EAC311E6D1704730380A2801D201208F
:10565000704700207047000010B500290AD0087874
:10566000002807D005487844FFF7AEFF002801D096
:10567000002010BD0248784410BD0000660E0000F6
:105680005E0E000010B591EA030F48BF83F000439F
:1056900000F12E83841A71EB030C05D2121943EB2F
:1056A0000C03001B61EB0C01DFF824E14FEA1154FD
:1056B000A4EB135C1EEA430F18BF9EEA445F73D04D
:1056C00023EA0E03DCF1200E21EA045143F4801397
:1056D00032D322FA0CFE10EB0E0023FA0CFE41EB43
:1056E0000E01CCF1200E03FA0EFE10EB0E0051F16C
:1056F0000001B1F5801FCCF1200E32D201EB045134
:1057000012FA0EF2BDE8104058BF7047401C38BF77
:105710005FEA420218BF7047002814BF20F0010062
:1057200041F100014FEA410313F5001F38BF7047F4
:10573000A1F1C04100F0CEBA012A43EB0302ACF163
:10574000200CDCF11F0E32BF4FF0000E23FA0CF3D9
:1057500010EB030041EB0451B4EB115FD0D0A1EB8F
:10576000045101F5801149085FEA300001EB045152
:105770000ED350F1000038BF12FA0EFE08D1BDE87A
:105780001040C9E7401C38BF5FEA4202CAD1C3E7F4
:10579000BDE810404FEA410313F5001F38BF7047C2
:1057A000A1F1C04100F096BA9EEA445F08D011EA28
:1057B0005E0FBDE8104004BF01F0004100207047BB
:1057C000BDE8104070B500F037FA00BF64FBBE3E84
:1057D0000000E0FF2DE9C04130B4DFF8A0C23CEA90
:1057E000111418BF3CEA131400F0EC8081EA0305A1
:1057F0001CEA111444EAD57418BF1CEA131500F012
:10580000C780A4EB05044FF0004545EAC12145EAF5
:10581000C32341EA505143EA525304F17F74994241
:1058200004F500344FEAC0204FEAC22208BF90427C
:1058300000F09C804FEA13650FF24016765D4FEA48
:10584000134506FB05F7C7F1807706FB07F74FEA1C
:10585000D737A7FB03687642C8F58038A7FB06CE8A
:1058600038BFA8F1010807FB08E64FF0000EA6FBC1
:10587000028CE6FB03CEDCF1000CCEF1004E38BF0B
:10588000AEF1010EA6FB0C584FF000074FF00005DB
:10589000E6FB0E87A1FB08C6A0FB07CE16EB0E06A3
:1058A00045F10005E1FB076515F1E04E7EBFA4F56B
:1058B00080345FEA46066D4116F1800745F1000528
:1058C0004FEA17274FEA066647EA0567A6F1DE4664
:1058D000B6F1805F4FEA15251FD9384624F0010C38
:1058E00005EBC471BCF1FE6F01EB0C1102D8F0BCEA
:1058F000BDE8008124425CBF01F5801E9EEAC47FA2
:1059000002D4F0BCBDE80081244238D4F0BCA1F13F
:10591000C041BDE8004100F0DDB94FEAD22242EAC1
:1059200043524FEAD323A7FB02864FEAD02040EA36
:10593000415007FB03661EEA0E0F4FEAD12105FB1B
:10594000026658BFA6EB0056B6EB00564FEA520E61
:105950004EEAC37E18EB0E0E56EB530EBDD518EB78
:1059600002085E417F1C55F10005B6E74FF4801533
:105970004FF000074FF000064FF00008ADE7F0BC15
:105980004FF0000001F1C04101F00041BDE800818D
:1059900011EA0C1F0CEA131500D00CE013EA0C1FDF
:1059A00000F025804FF00000F0BC81EA030101F017
:1059B0000041BDE80081F0BCBDE8004181EA03017F
:1059C00000F088B9F0BCBDE8004170B500F034F9D2
:1059D000097EFC3E00F007B881EA03014FF00000A9
:1059E00001F00041704781EA030100F073B9F0BC97
:1059F000BDE800414FF0000021497047FFFDFBF971
:105A0000F7F5F4F2F0EEEDEBE9E8E6E4E3E1E0DEF1
:105A1000DDDBDAD8D7D5D4D3D1D0CFCDCCCBCAC863
:105A2000C7C6C5C4C2C1C0BFBEBDBCBBBAB9B8B78A
:105A3000B6B5B4B3B2B1B0AFAEADACABAAA9A8A87D
:105A4000A7A6A5A4A3A3A2A1A09F9F9E9D9C9C9B4B
:105A50009A999998979796959594939392919190F6
:105A60008F8F8E8E8D8C8C8B8B8A89898888878787
:105A70008685858484838382828181800000FF07FC
:105A80000000F87F4FEA41034FEA5353A3F58063C8
:105A9000D3F11E03C8BFD3F1210C0CDD4FF000423F
:105AA00042EAC12242EA505232FA03FC8CEAE17C1B
:105AB000ACEBE1707047102BC4BF0020704703F5BA
:105AC000787CBCF1FF3F04D06FF0004282EA2100F5
:105AD000704770B500F0B0F84992248000207047FC
